{
  "contractName": "DiplomaVerification",
  "abi": [
    {
      "inputs": [
        {
          "internalType": "string",
          "name": "",
          "type": "string"
        }
      ],
      "name": "diplomas",
      "outputs": [
        {
          "internalType": "string",
          "name": "studentName",
          "type": "string"
        },
        {
          "internalType": "string",
          "name": "diplomaHash",
          "type": "string"
        },
        {
          "internalType": "bool",
          "name": "isValid",
          "type": "bool"
        }
      ],
      "stateMutability": "view",
      "type": "function",
      "constant": true
    },
    {
      "inputs": [
        {
          "internalType": "string",
          "name": "_studentName",
          "type": "string"
        },
        {
          "internalType": "string",
          "name": "_diplomaHash",
          "type": "string"
        }
      ],
      "name": "addDiploma",
      "outputs": [],
      "stateMutability": "nonpayable",
      "type": "function"
    },
    {
      "inputs": [
        {
          "internalType": "string",
          "name": "_diplomaHash",
          "type": "string"
        }
      ],
      "name": "verifyDiploma",
      "outputs": [
        {
          "internalType": "bool",
          "name": "",
          "type": "bool"
        }
      ],
      "stateMutability": "view",
      "type": "function",
      "constant": true
    },
    {
      "inputs": [
        {
          "internalType": "string",
          "name": "_diplomaHash",
          "type": "string"
        }
      ],
      "name": "revokeDiploma",
      "outputs": [],
      "stateMutability": "nonpayable",
      "type": "function"
    }
  ],
  "bytecode": "0x608060405234801561000f575f80fd5b506109898061001d5f395ff3fe608060405234801561000f575f80fd5b506004361061004a575f3560e01c80631ce8dca21461004e5780635bc5ee021461008057806369b486cb1461009c5780636a7395a5146100cc575b5f80fd5b61006860048036038101906100639190610484565b6100e8565b6040516100779392919061055f565b60405180910390f35b61009a600480360381019061009591906105a2565b61023d565b005b6100b660048036038101906100b19190610484565b6102c8565b6040516100c39190610618565b60405180910390f35b6100e660048036038101906100e19190610484565b6102fd565b005b5f818051602081018201805184825260208301602085012081835280955050505050505f91509050805f01805461011e9061065e565b80601f016020809104026020016040519081016040528092919081815260200182805461014a9061065e565b80156101955780601f1061016c57610100808354040283529160200191610195565b820191905f5260205f20905b81548152906001019060200180831161017857829003601f168201915b5050505050908060010180546101aa9061065e565b80601f01602080910402602001604051908101604052809291908181526020018280546101d69061065e565b80156102215780601f106101f857610100808354040283529160200191610221565b820191905f5260205f20905b81548152906001019060200180831161020457829003601f168201915b505050505090806002015f9054906101000a900460ff16905083565b6040518060600160405280838152602001828152602001600115158152505f8260405161026a91906106c8565b90815260200160405180910390205f820151815f01908161028b9190610884565b5060208201518160010190816102a19190610884565b506040820151816002015f6101000a81548160ff0219169083151502179055509050505050565b5f80826040516102d891906106c8565b90815260200160405180910390206002015f9054906101000a900460ff169050919050565b5f808260405161030d91906106c8565b90815260200160405180910390206002015f6101000a81548160ff02191690831515021790555050565b5f604051905090565b5f80fd5b5f80fd5b5f80fd5b5f80fd5b5f601f19601f8301169050919050565b7f4e487b71000000000000000000000000000000000000000000000000000000005f52604160045260245ffd5b61039682610350565b810181811067ffffffffffffffff821117156103b5576103b4610360565b5b80604052505050565b5f6103c7610337565b90506103d3828261038d565b919050565b5f67ffffffffffffffff8211156103f2576103f1610360565b5b6103fb82610350565b9050602081019050919050565b828183375f83830152505050565b5f610428610423846103d8565b6103be565b9050828152602081018484840111156104445761044361034c565b5b61044f848285610408565b509392505050565b5f82601f83011261046b5761046a610348565b5b813561047b848260208601610416565b91505092915050565b5f6020828403121561049957610498610340565b5b5f82013567ffffffffffffffff8111156104b6576104b5610344565b5b6104c284828501610457565b91505092915050565b5f81519050919050565b5f82825260208201905092915050565b5f5b838110156105025780820151818401526020810190506104e7565b5f8484015250505050565b5f610517826104cb565b61052181856104d5565b93506105318185602086016104e5565b61053a81610350565b840191505092915050565b5f8115159050919050565b61055981610545565b82525050565b5f6060820190508181035f830152610577818661050d565b9050818103602083015261058b818561050d565b905061059a6040830184610550565b949350505050565b5f80604083850312156105b8576105b7610340565b5b5f83013567ffffffffffffffff8111156105d5576105d4610344565b5b6105e185828601610457565b925050602083013567ffffffffffffffff81111561060257610601610344565b5b61060e85828601610457565b9150509250929050565b5f60208201905061062b5f830184610550565b92915050565b7f4e487b71000000000000000000000000000000000000000000000000000000005f52602260045260245ffd5b5f600282049050600182168061067557607f821691505b60208210810361068857610687610631565b5b50919050565b5f81905092915050565b5f6106a2826104cb565b6106ac818561068e565b93506106bc8185602086016104e5565b80840191505092915050565b5f6106d38284610698565b915081905092915050565b5f819050815f5260205f209050919050565b5f6020601f8301049050919050565b5f82821b905092915050565b5f6008830261073a7fffffffffffffffffffffffffffffffffffffffffffffffffffffffffffffffff826106ff565b61074486836106ff565b95508019841693508086168417925050509392505050565b5f819050919050565b5f819050919050565b5f61078861078361077e8461075c565b610765565b61075c565b9050919050565b5f819050919050565b6107a18361076e565b6107b56107ad8261078f565b84845461070b565b825550505050565b5f90565b6107c96107bd565b6107d4818484610798565b505050565b5b818110156107f7576107ec5f826107c1565b6001810190506107da565b5050565b601f82111561083c5761080d816106de565b610816846106f0565b81016020851015610825578190505b610839610831856106f0565b8301826107d9565b50505b505050565b5f82821c905092915050565b5f61085c5f1984600802610841565b1980831691505092915050565b5f610874838361084d565b9150826002028217905092915050565b61088d826104cb565b67ffffffffffffffff8111156108a6576108a5610360565b5b6108b0825461065e565b6108bb8282856107fb565b5f60209050601f8311600181146108ec575f84156108da578287015190505b6108e48582610869565b86555061094b565b601f1984166108fa866106de565b5f5b82811015610921578489015182556001820191506020850194506020810190506108fc565b8683101561093e578489015161093a601f89168261084d565b8355505b6001600288020188555050505b50505050505056fea26469706673582212201e4becbf795156f353c4bb3296cd3cd3fde68888604d719c531b685dbf55ccb564736f6c63430008150033",
  "immutableReferences": {},
  "source": "// SPDX-License-Identifier: MIT\r\npragma solidity ^0.8.0;\r\n\r\ncontract DiplomaVerification {\r\n\r\n    struct Diploma {\r\n        string studentName;\r\n        string diplomaHash;\r\n        bool isValid;\r\n    }\r\n\r\n    mapping(string => Diploma) public diplomas;\r\n\r\n    // Fonction pour ajouter un diplme  la blockchain\r\n    function addDiploma(string memory _studentName, string memory _diplomaHash) public {\r\n        diplomas[_diplomaHash] = Diploma(_studentName, _diplomaHash, true);\r\n    }\r\n\r\n    // Fonction pour vrifier si un diplme est valide\r\n    function verifyDiploma(string memory _diplomaHash) public view returns (bool) {\r\n        return diplomas[_diplomaHash].isValid;\r\n    }\r\n\r\n    // Fonction pour rvoquer un diplme\r\n    function revokeDiploma(string memory _diplomaHash) public {\r\n        diplomas[_diplomaHash].isValid = false;\r\n    }\r\n}\r\n",
  "sourcePath": "C:\\Users\\pc\\authentika\\authentika_blockchain\\contracts\\DiplomaVerification.sol",
  "compiler": {
    "name": "solc",
    "version": "0.8.21+commit.d9974bed.Emscripten.clang"
  },
  "schemaVersion": "3.4.16",
  "updatedAt": "2024-10-16T18:27:16.583Z",
  "networkType": "ethereum",
  "devdoc": {
    "kind": "dev",
    "methods": {},
    "version": 1
  },
  "userdoc": {
    "kind": "user",
    "methods": {},
    "version": 1
  }
}